{
  "_format": "hh-sol-artifact-1",
  "contractName": "Vault",
  "sourceName": "contracts/Vault.sol",
  "abi": [
    {
      "inputs": [
        {
          "internalType": "address",
          "name": "validation_",
          "type": "address"
        }
      ],
      "stateMutability": "nonpayable",
      "type": "constructor"
    },
    {
      "anonymous": false,
      "inputs": [
        {
          "indexed": false,
          "internalType": "address",
          "name": "fromTokenAddr",
          "type": "address"
        },
        {
          "indexed": false,
          "internalType": "address",
          "name": "fromUserAddress",
          "type": "address"
        },
        {
          "indexed": false,
          "internalType": "uint256",
          "name": "fromAmount",
          "type": "uint256"
        },
        {
          "indexed": false,
          "internalType": "string",
          "name": "toChainId",
          "type": "string"
        },
        {
          "indexed": false,
          "internalType": "string",
          "name": "toTokenAddr",
          "type": "string"
        },
        {
          "indexed": false,
          "internalType": "address",
          "name": "toUserAddress",
          "type": "address"
        },
        {
          "indexed": false,
          "internalType": "uint256",
          "name": "toAmount",
          "type": "uint256"
        }
      ],
      "name": "Lock",
      "type": "event"
    },
    {
      "anonymous": false,
      "inputs": [
        {
          "indexed": false,
          "internalType": "bool",
          "name": "result",
          "type": "bool"
        },
        {
          "indexed": false,
          "internalType": "string",
          "name": "resultMsg",
          "type": "string"
        },
        {
          "indexed": false,
          "internalType": "string",
          "name": "fromChainId",
          "type": "string"
        },
        {
          "indexed": false,
          "internalType": "bytes32",
          "name": "fromTxHash",
          "type": "bytes32"
        },
        {
          "indexed": false,
          "internalType": "address",
          "name": "toTokenAddr",
          "type": "address"
        },
        {
          "indexed": false,
          "internalType": "address",
          "name": "toAddr",
          "type": "address"
        },
        {
          "indexed": false,
          "internalType": "uint256",
          "name": "amount",
          "type": "uint256"
        }
      ],
      "name": "Unlock",
      "type": "event"
    },
    {
      "inputs": [
        {
          "internalType": "address",
          "name": "account",
          "type": "address"
        }
      ],
      "name": "balanceOfCoin",
      "outputs": [
        {
          "internalType": "uint256",
          "name": "",
          "type": "uint256"
        }
      ],
      "stateMutability": "view",
      "type": "function"
    },
    {
      "inputs": [
        {
          "internalType": "address",
          "name": "account",
          "type": "address"
        },
        {
          "internalType": "address",
          "name": "tokenContractAddr",
          "type": "address"
        }
      ],
      "name": "balanceOfToken",
      "outputs": [
        {
          "internalType": "uint256",
          "name": "",
          "type": "uint256"
        }
      ],
      "stateMutability": "view",
      "type": "function"
    },
    {
      "inputs": [],
      "name": "contractBalanceOf",
      "outputs": [
        {
          "internalType": "uint256",
          "name": "",
          "type": "uint256"
        }
      ],
      "stateMutability": "view",
      "type": "function"
    },
    {
      "inputs": [],
      "name": "getBlockNumber",
      "outputs": [
        {
          "internalType": "uint256",
          "name": "",
          "type": "uint256"
        }
      ],
      "stateMutability": "view",
      "type": "function"
    },
    {
      "inputs": [
        {
          "internalType": "address",
          "name": "fromTokenAddr",
          "type": "address"
        },
        {
          "internalType": "uint256",
          "name": "fromAmount",
          "type": "uint256"
        },
        {
          "internalType": "string",
          "name": "toChainId",
          "type": "string"
        },
        {
          "internalType": "string",
          "name": "toTokenAddr",
          "type": "string"
        },
        {
          "internalType": "address",
          "name": "toUserAddr",
          "type": "address"
        },
        {
          "internalType": "uint256",
          "name": "toAmount",
          "type": "uint256"
        }
      ],
      "name": "lock",
      "outputs": [],
      "stateMutability": "payable",
      "type": "function"
    },
    {
      "inputs": [
        {
          "internalType": "bytes32",
          "name": "fromTxHash",
          "type": "bytes32"
        },
        {
          "internalType": "string",
          "name": "fromChainId",
          "type": "string"
        },
        {
          "internalType": "address",
          "name": "fromAddr",
          "type": "address"
        },
        {
          "internalType": "address",
          "name": "fromTokenAddr",
          "type": "address"
        },
        {
          "internalType": "address payable",
          "name": "toAddr",
          "type": "address"
        },
        {
          "internalType": "address",
          "name": "toTokenAddr",
          "type": "address"
        },
        {
          "internalType": "uint256",
          "name": "amount",
          "type": "uint256"
        },
        {
          "components": [
            {
              "internalType": "uint8",
              "name": "v",
              "type": "uint8"
            },
            {
              "internalType": "bytes32",
              "name": "r",
              "type": "bytes32"
            },
            {
              "internalType": "bytes32",
              "name": "s",
              "type": "bytes32"
            }
          ],
          "internalType": "struct IValidation.Signature[]",
          "name": "multiSig",
          "type": "tuple[]"
        }
      ],
      "name": "unlock",
      "outputs": [],
      "stateMutability": "payable",
      "type": "function"
    },
    {
      "inputs": [
        {
          "internalType": "bytes",
          "name": "encodedData",
          "type": "bytes"
        },
        {
          "internalType": "bytes",
          "name": "multiSigns",
          "type": "bytes"
        }
      ],
      "name": "unlock2",
      "outputs": [],
      "stateMutability": "payable",
      "type": "function"
    }
  ],
  "bytecode": "0x60a060409080825234620001c357806200153b8038038091620000238285620001c8565b8339602092839181010312620001c357516001600160a01b03811690819003620001c35760808190528251635c8a056760e11b81528281600481855afa8015620001b857839160009162000170575b5060248551809481936301ffc9a760e01b835263ffffffff60e01b1660048301525afa908115620001655760009162000121575b5015620000d357505161133890816200020382396080518181816104c4015281816108b30152610abf0152f35b608491519062461bcd60e51b825260048201526024808201527f476976656e206164647265737320646f65736e277420737570706f72742045526044820152634331363560e01b6064820152fd5b8281813d83116200015d575b620001398183620001c8565b8101031262000159575190811515820362000156575038620000a6565b80fd5b5080fd5b503d6200012d565b83513d6000823e3d90fd5b909181813d8311620001b0575b620001898183620001c8565b81010312620001595751906001600160e01b03198216820362000156575082903862000072565b503d6200017d565b84513d6000823e3d90fd5b600080fd5b601f909101601f19168101906001600160401b03821190821017620001ec57604052565b634e487b7160e01b600052604160045260246000fdfe608080604052600436101561001357600080fd5b60003560e01c9081630eafe47314610dbf575080631fb4bc6d146108295780632a185ec91461042357806332be3b6a1461010057806342cbb15c146100e2578063f59e38b71461008d5763f7ade0081461006c57600080fd5b3461008857600060031936011261008857602047604051908152f35b600080fd5b34610088576040600319360112610088576100a6610e00565b602435906001600160a01b0390818316809303610088571660005260006020526040600020906000526020526020604060002054604051908152f35b34610088576000600319360112610088576020600154604051908152f35b60c060031936011261008857610114610e00565b6024356044359167ffffffffffffffff928381116100885761013a903690600401610e2c565b909360643590811161008857610154903690600401610e2c565b61015c610e16565b9160a435936001600160a01b0386169788156000146101f557906101eb95949392917f13f7416b4bee319928d6da0eaf96d26552d2a3cab7b1a39a697070ea401f2daa996101ab8a1515610e6e565b6101b68a3414610ff4565b33600052600060205260406000209060005260205260406000206101db348254610f3f565b905560405198899833908a610f9c565b0390a15b43600155005b610200881515610e6e565b61020a3415610eb9565b604051987fdd62ed3e000000000000000000000000000000000000000000000000000000008a523360048b01523060248b01526020998a81604481855afa801561037c578a916000916103f2575b5010610388576040517f23b872dd0000000000000000000000000000000000000000000000000000000081523360048201523060248201528960448201528a816064816000865af190811561037c5760009161034f575b501561030b57906103039695949392917f13f7416b4bee319928d6da0eaf96d26552d2a3cab7b1a39a697070ea401f2daa9a33600052600081526040600020916000525260406000206101db8a8254610f3f565b0390a16101ef565b60648a6040519062461bcd60e51b82526004820152601960248201527f746f6b656e207472616e7366657246726f6d206661696c6564000000000000006044820152fd5b61036f91508b3d8d11610375575b6103678183610f04565b810190610f27565b8b6102af565b503d61035d565b6040513d6000823e3d90fd5b60848a6040519062461bcd60e51b82526004820152602160248201527f746f6b656e20616c6c6f77616e6365206d757374206265203e3d20616d6f756e60448201527f74000000000000000000000000000000000000000000000000000000000000006064820152fd5b8092508c8092503d831161041c575b61040b8183610f04565b81010312610088578990518c610258565b503d610401565b6101006003193601126100885767ffffffffffffffff60243581811161008857610451903690600401610e2c565b5050604435906001600160a01b03918281160361008857606435828116036100885761047b610e16565b60a43591838316918284036100885760c4359460e435928084116100885736602385011215610088578360040135818111610088576060943660248784028301011161008857837f00000000000000000000000000000000000000000000000000000000000000001691604051967fe6764f250000000000000000000000000000000000000000000000000000000088523360048901526020978881602481885afa801561037c576105359160009161080c575b5061103f565b604051958887019060043582527fffffffffffffffffffffffffffffffffffffffff000000000000000000000000809c841b16604089015288169a88831b1660548801528b60688801526068875260a0870195878710908711176107dd57928691838a9694889687604052855190207fb860190a00000000000000000000000000000000000000000000000000000000885260e486019060a4870152604060c4870152526024610104850193019160005b82811061079957505050507fffffffffffffffffffffffffffffffffffffffffffffffffffffffffffffff6084926000920301925af190811561037c5761063692600092610766575b505061108a565b8261069957506000848194829483946106536101ef991515610e6e565b61065e843414610ff4565b61066a84471015611153565b828552848152604085209185525260408320610687838254611146565b90555af16106936111ba565b506111ea565b8185610702926106ae82979596971515610e6e565b6106b83415610eb9565b60405193849283927fa9059cbb00000000000000000000000000000000000000000000000000000000845260048401602090939291936001600160a01b0360408201951681520152565b03816000885af1801561037c5761072191600091610749575b506110fb565b60005260008152604060002091600052526107426040600020918254611146565b90556101ef565b6107609150843d8611610375576103678183610f04565b8661071b565b61078a925060a09086903d8811610791575b6107828285610f04565b010190610f27565b878061062f565b3d9150610778565b93929650935093955084359060ff82168092036100885783816001938293528c8801358d8201526040880135604082015201950191019089959388938896936105e6565b7f4e487b7100000000000000000000000000000000000000000000000000000000600052604160045260246000fd5b61082391508a3d8c11610375576103678183610f04565b8d61052f565b60406003193601126100885760043567ffffffffffffffff811161008857610855903690600401610e2c565b9060243567ffffffffffffffff811161008857610876903690600401610e2c565b926040517fe6764f250000000000000000000000000000000000000000000000000000000081523360048201526020816024816001600160a01b037f0000000000000000000000000000000000000000000000000000000000000000165afa801561037c576108ec91600091610da0575061103f565b820160a08382031261008857823567ffffffffffffffff81116100885783019080601f830112156100885781602061092693359101611235565b9061093360408401610e5a565b9361094060608501610e5a565b9160208183810103126100885780359067ffffffffffffffff821161008857828101601f83830101121561008857818101359267ffffffffffffffff84116107dd578360051b90604051946109986020840187610f04565b855260208501809482850160208583880101011161008857602081860101915b60208583880101018310610d555750505050505060206000610a3f60405160a084820152610a2c816109ed60c082018b61128f565b868c013560408301526001600160a01b038d1660608301526001600160a01b038a16608083015260808c013560a083015203601f198101835282610f04565b836040519282848094519384920161126c565b8101039060025afa1561037c57600051916040519283917f6b26ea58000000000000000000000000000000000000000000000000000000008352604483019160048401526040602484015251809152606482019060648160051b84010193916000905b828210610d0b575050505080602092038160006001600160a01b037f0000000000000000000000000000000000000000000000000000000000000000165af1801561037c57610af991600091610cec575b5061108a565b6001600160a01b038416610bcb577fffdf507bfa2a40265d049bdecc5677801972532f46ebc0b0a2bd73cf39fe8f60936101eb91610b3c60808601351515610e6e565b610b4c6080860135471015611153565b6001600160a01b038116600052600060205260406000206001600160a01b0383166000526020526040600020610b8760808701358254611146565b9055610baa600080808060808a01356001600160a01b0387165af16106936111ba565b60405194859460206001600160a01b036080840135951692013590866112b4565b610bda60808401351515610e6e565b6040517fa9059cbb0000000000000000000000000000000000000000000000000000000081526001600160a01b038216600482015260808401356024820152936020858060448101038160006001600160a01b0386165af191821561037c57610c6f610303937fffdf507bfa2a40265d049bdecc5677801972532f46ebc0b0a2bd73cf39fe8f6097600091610ccd57506110fb565b6001600160a01b038116600052600060205260406000206001600160a01b0383166000526020526040600020610caa60808701358254611146565b905560405194859460206001600160a01b036080840135951692013590866112b4565b610ce6915060203d602011610375576103678183610f04565b8861071b565b610d05915060203d602011610375576103678183610f04565b86610af3565b91936020610d46877fffffffffffffffffffffffffffffffffffffffffffffffffffffffffffffff9c8394600196989a03018652885161128f565b96019201920185939192610aa2565b823567ffffffffffffffff8111610088578287010190848701603f83011215610088576020809291610d938293888b01906040858201359101611235565b81520193019290506109b8565b610db9915060203d602011610375576103678183610f04565b8661052f565b34610088576020600319360112610088576020906001600160a01b03610de3610e00565b166000526000825260406000206000805282526040600020548152f35b600435906001600160a01b038216820361008857565b608435906001600160a01b038216820361008857565b9181601f840112156100885782359167ffffffffffffffff8311610088576020838186019501011161008857565b35906001600160a01b038216820361008857565b15610e7557565b606460405162461bcd60e51b815260206004820152601660248201527f616d6f756e74206973206c6f776572207468616e2030000000000000000000006044820152fd5b15610ec057565b606460405162461bcd60e51b815260206004820152601260248201527f6d73672e7661756c65206973206e6f74203000000000000000000000000000006044820152fd5b90601f601f19910116810190811067ffffffffffffffff8211176107dd57604052565b90816020910312610088575180151581036100885790565b91908201809211610f4c57565b7f4e487b7100000000000000000000000000000000000000000000000000000000600052601160045260246000fd5b601f8260209493601f19938186528686013760008582860101520116010190565b95929360c0979295610fe995610fdb939c9b9a9c6001600160a01b0398898092168b521660208a0152604089015260e0606089015260e0880191610f7b565b918583036080870152610f7b565b951660a08201520152565b15610ffb57565b606460405162461bcd60e51b815260206004820152601f60248201527f6d73672e7661756c6520646f6573206e6f74206d6174636820616d6f756e74006044820152fd5b1561104657565b606460405162461bcd60e51b815260206004820152601a60248201527f6d73672e73656e646572206973206e6f74206d65646961746f720000000000006044820152fd5b1561109157565b608460405162461bcd60e51b815260206004820152602360248201527f766572696669636174696f6e20636f6e646974696f6e7320617265206e6f742060448201527f6d657400000000000000000000000000000000000000000000000000000000006064820152fd5b1561110257565b606460405162461bcd60e51b815260206004820152601560248201527f746f6b656e207472616e73666572206661696c656400000000000000000000006044820152fd5b91908203918211610f4c57565b1561115a57565b606460405162461bcd60e51b815260206004820152601c60248201527f496e73756666696369656e742062616c616e6365206f66207269676f000000006044820152fd5b67ffffffffffffffff81116107dd57601f01601f191660200190565b3d156111e5573d906111cb8261119e565b916111d96040519384610f04565b82523d6000602084013e565b606090565b156111f157565b606460405162461bcd60e51b815260206004820152601360248201527f4661696c656420746f2073656e6420436f696e000000000000000000000000006044820152fd5b9291926112418261119e565b9161124f6040519384610f04565b829481845281830111610088578281602093846000960137010152565b60005b83811061127f5750506000910152565b818101518382015260200161126f565b90601f19601f6020936112ad8151809281875287808801910161126c565b0116010190565b919594936112e260c094926001855260e06020860152600060e086015261010080604087015285019061128f565b9660608401526001600160a01b0380921660808401521660a0820152015256fea2646970667358221220bf98575c986c7fc3c32b2519c94b1920ff672af2aae95fe04e5016fe0359972864736f6c63430008120033",
  "linkReferences": {},
  "deployedLinkReferences": {}
}